{
  "_format": "hh-sol-artifact-1",
  "contractName": "NiftyCardMinter",
  "sourceName": "contracts/Minter.sol",
  "abi": [
    {
      "inputs": [],
      "stateMutability": "nonpayable",
      "type": "constructor"
    },
    {
      "anonymous": false,
      "inputs": [
        {
          "indexed": true,
          "internalType": "uint256",
          "name": "itemId",
          "type": "uint256"
        },
        {
          "indexed": true,
          "internalType": "address",
          "name": "nftContract",
          "type": "address"
        },
        {
          "indexed": true,
          "internalType": "uint256",
          "name": "tokenId",
          "type": "uint256"
        },
        {
          "indexed": false,
          "internalType": "address",
          "name": "creator",
          "type": "address"
        },
        {
          "indexed": false,
          "internalType": "address",
          "name": "owner",
          "type": "address"
        }
      ],
      "name": "MarketItemCreated",
      "type": "event"
    },
    {
      "inputs": [
        {
          "internalType": "address",
          "name": "nftContract",
          "type": "address"
        },
        {
          "internalType": "uint256",
          "name": "tokenId",
          "type": "uint256"
        }
      ],
      "name": "createMarketItem",
      "outputs": [],
      "stateMutability": "payable",
      "type": "function"
    },
    {
      "inputs": [],
      "name": "fetchItemsCreated",
      "outputs": [
        {
          "components": [
            {
              "internalType": "uint256",
              "name": "itemId",
              "type": "uint256"
            },
            {
              "internalType": "address",
              "name": "nftContract",
              "type": "address"
            },
            {
              "internalType": "uint256",
              "name": "tokenId",
              "type": "uint256"
            },
            {
              "internalType": "address payable",
              "name": "creator",
              "type": "address"
            },
            {
              "internalType": "address payable",
              "name": "owner",
              "type": "address"
            }
          ],
          "internalType": "struct NiftyCardMinter.MarketItem[]",
          "name": "",
          "type": "tuple[]"
        }
      ],
      "stateMutability": "view",
      "type": "function"
    },
    {
      "inputs": [],
      "name": "fetchMarketItems",
      "outputs": [
        {
          "components": [
            {
              "internalType": "uint256",
              "name": "itemId",
              "type": "uint256"
            },
            {
              "internalType": "address",
              "name": "nftContract",
              "type": "address"
            },
            {
              "internalType": "uint256",
              "name": "tokenId",
              "type": "uint256"
            },
            {
              "internalType": "address payable",
              "name": "creator",
              "type": "address"
            },
            {
              "internalType": "address payable",
              "name": "owner",
              "type": "address"
            }
          ],
          "internalType": "struct NiftyCardMinter.MarketItem[]",
          "name": "",
          "type": "tuple[]"
        }
      ],
      "stateMutability": "view",
      "type": "function"
    },
    {
      "inputs": [],
      "name": "fetchMyNFTs",
      "outputs": [
        {
          "components": [
            {
              "internalType": "uint256",
              "name": "itemId",
              "type": "uint256"
            },
            {
              "internalType": "address",
              "name": "nftContract",
              "type": "address"
            },
            {
              "internalType": "uint256",
              "name": "tokenId",
              "type": "uint256"
            },
            {
              "internalType": "address payable",
              "name": "creator",
              "type": "address"
            },
            {
              "internalType": "address payable",
              "name": "owner",
              "type": "address"
            }
          ],
          "internalType": "struct NiftyCardMinter.MarketItem[]",
          "name": "",
          "type": "tuple[]"
        }
      ],
      "stateMutability": "view",
      "type": "function"
    }
  ],
  "bytecode": "0x608060405234801561001057600080fd5b506001600055600380546001600160a01b0319163317905561089f806100376000396000f3fe60806040526004361061003f5760003560e01c80630f08efe014610044578063202e37401461006f578063dd5f851814610084578063f064c32e14610099575b600080fd5b34801561005057600080fd5b506100596100ae565b60405161006691906107a4565b60405180910390f35b34801561007b57600080fd5b50610059610240565b61009761009236600461076e565b610434565b005b3480156100a557600080fd5b50610059610583565b606060006100bb60015490565b90506000808267ffffffffffffffff8111156100e757634e487b7160e01b600052604160045260246000fd5b60405190808252806020026020018201604052801561014057816020015b6040805160a0810182526000808252602080830182905292820181905260608201819052608082015282526000199092019101816101055790505b50905060005b8381101561023857600060048161015e846001610820565b81526020810191909152604001600020600401546001600160a01b0316141561022657600061018e826001610820565b600081815260046020818152604092839020835160a0810185528154815260018201546001600160a01b03908116938201939093526002820154948101949094526003810154821660608501529182015416608083015285519293509185908790811061020b57634e487b7160e01b600052603260045260246000fd5b6020908102919091010152610221600186610820565b945050505b8061023081610838565b915050610146565b509392505050565b6060600061024d60015490565b905060008060005b838110156102b057336004600061026d846001610820565b81526020810191909152604001600020600401546001600160a01b0316141561029e5761029b600184610820565b92505b806102a881610838565b915050610255565b5060008267ffffffffffffffff8111156102da57634e487b7160e01b600052604160045260246000fd5b60405190808252806020026020018201604052801561033357816020015b6040805160a0810182526000808252602080830182905292820181905260608201819052608082015282526000199092019101816102f85790505b50905060005b8481101561042b573360046000610351846001610820565b81526020810191909152604001600020600401546001600160a01b03161415610419576000610381826001610820565b600081815260046020818152604092839020835160a0810185528154815260018201546001600160a01b0390811693820193909352600282015494810194909452600381015482166060850152918201541660808301528551929350918590879081106103fe57634e487b7160e01b600052603260045260246000fd5b6020908102919091010152610414600186610820565b945050505b8061042381610838565b915050610339565b50949350505050565b6002600054141561048b5760405162461bcd60e51b815260206004820152601f60248201527f5265656e7472616e637947756172643a207265656e7472616e742063616c6c00604482015260640160405180910390fd5b600260005561049e600180546001019055565b60006104a960015490565b6040805160a0810182528281526001600160a01b03868116602080840182815284860189815233606087018181526080880182815260008b81526004808852908b902099518a55945160018a018054918a166001600160a01b0319928316179055935160028a0155905160038901805491891691851691909117905551969092018054969095169516949094179092558351838152918201929092529293508492909184917f371f27f6a0fe7819306fc5cf42bd3c289ac445631dcfba5cbb52153df800e946910160405180910390a45050600160005550565b6060600061059060015490565b905060008060005b838110156105f35733600460006105b0846001610820565b81526020810191909152604001600020600301546001600160a01b031614156105e1576105de600184610820565b92505b806105eb81610838565b915050610598565b5060008267ffffffffffffffff81111561061d57634e487b7160e01b600052604160045260246000fd5b60405190808252806020026020018201604052801561067657816020015b6040805160a08101825260008082526020808301829052928201819052606082018190526080820152825260001990920191018161063b5790505b50905060005b8481101561042b573360046000610694846001610820565b81526020810191909152604001600020600301546001600160a01b0316141561075c5760006106c4826001610820565b600081815260046020818152604092839020835160a0810185528154815260018201546001600160a01b03908116938201939093526002820154948101949094526003810154821660608501529182015416608083015285519293509185908790811061074157634e487b7160e01b600052603260045260246000fd5b6020908102919091010152610757600186610820565b945050505b8061076681610838565b91505061067c565b60008060408385031215610780578182fd5b82356001600160a01b0381168114610796578283fd5b946020939093013593505050565b602080825282518282018190526000919060409081850190868401855b8281101561081357815180518552868101516001600160a01b03908116888701528682015187870152606080830151821690870152608091820151169085015260a090930192908501906001016107c1565b5091979650505050505050565b6000821982111561083357610833610853565b500190565b600060001982141561084c5761084c610853565b5060010190565b634e487b7160e01b600052601160045260246000fdfea264697066735822122023ae1cb5da26221f2b33a9ca47b36e5096f5358b2bff47a4161828f350e0adb964736f6c63430008040033",
  "linkReferences": {},
  "deployedLinkReferences": {}
}